:020000040800F2
:1000000000800120810800080D0800081B08000876
:1000100021080008270800082D080008000000003B
:10002000000000000000000000000000B11E0008F9
:1000300033080008000000000121000869210008C1
:10004000D1080008D1080008D1080008D10800082C
:10005000D1080008D1080008D1080008D10800081C
:10006000D1080008D1080008D1080008D10800080C
:10007000D1080008D1080008D1080008D1080008FC
:10008000D1080008D1080008D108000800000000CD
:10009000000000000000000000000000D10800087F
:1000A000D108000841080008D1080008D10800085C
:1000B000D1080008D1080008D1080008D1080008BC
:1000C000D1080008D1080008D1080008D1080008AC
:1000D000D1080008D1080008D1080008000000007D
:1000E000D1080008D1080008D1080008000000006D
:1000F000000000000000000000000000D10800081F
:1001000000000000D1080008D1080008D10800084C
:1001100000000000000000000000000000000000DF
:10012000D1080008D1080008D1080008D10800084B
:10013000D1080008000000000000000000000000DE
:10014000000000000000000000000000D1080008CE
:10015000D1080008D1080008D1080008D10800081B
:10016000D1080008D10800080000000000000000CD
:10017000000000000000000000000000000000007F
:1001800000000000D108000800000000000000008E
:04019000D10800088A
:1001A00010B5054C237833B9044B13B10448AFF3B1
:1001B00000800123237010BD3C04002000000000DB
:1001C000C831000808B5034B1BB103490348AFF31E
:1001D000008008BD0000000040040020C831000875
:1001E00053B94AB9002908BF00281CBF4FF0FF319E
:1001F0004FF0FF3000F06EB9ADF1080C6DE904CEA0
:1002000000F006F8DDF804E0DDE9022304B07047F1
:100210002DE9F047089D04468C46002B40F0838072
:100220008A42174647D9B2FA82F242B1C2F120009F
:1002300024FA00F09140974040EA010C94404FEAC4
:100240001748230CBCFBF8F61FFA87FE08FB16C103
:1002500043EA014306FB0EF1994209D9FB1806F166
:10026000FF3080F01981994240F21681023E3B44F2
:100270005B1AA4B2B3FBF8F008FB103344EA034462
:1002800000FB0EFEA64509D93C1900F1FF3380F0B2
:100290000581A64540F2028102383C4440EA06400E
:1002A000A4EB0E0400261DB1D4400023C5E9004391
:1002B0003146BDE8F08702B9FFDEB2FA82F2002AC9
:1002C00050D1CB1B4FEA174E1FFA87F80126B3FB1C
:1002D000FEFC210C0EFB1C3341EA034108FB0CF32E
:1002E0008B4207D979180CF1FF3002D28B4200F211
:1002F000E9808446C91AA3B2B1FBFEF00EFB1011CF
:1003000043EA014408FB00F8A04507D93C1900F175
:10031000FF3302D2A04500F2D9801846A4EB0804AE
:1003200040EA0C40BFE78B4209D9002D00F0B180B4
:100330000026C5E9000130463146BDE8F087B3FA32
:1003400083F6002E4AD18B4202D3824200F2B8805B
:10035000841A61EB030101208C46002DA8D0C5E969
:10036000004CA5E7C2F1200320FA03F6974001FAFA
:1003700002F04FEA174ED9403043030CB1FBFEF6B2
:100380001FFA87F80EFB161143EA014306FB08F13A
:10039000994204FA02F409D9FB1806F1FF3C80F0F7
:1003A0008D80994240F28A80023E3B445B1A81B2C2
:1003B000B3FBFEF00EFB103341EA034100FB08F3F0
:1003C0008B4207D9791800F1FF3C73D28B4271D967
:1003D00002383944CB1A40EA064678E7C6F1200CC9
:1003E00003FA06F422FA0CF31C4320FA0CF701FA84
:1003F00006F34FEA144E21FA0CF11F433B0CB1FBFC
:10040000FEF91FFA84F80EFB191143EA014109FBBA
:1004100008FA8A4502FA06F200FA06F308D96118CA
:1004200009F1FF3048D28A4546D9A9F10209214491
:10043000A1EB0A01BFB2B1FBFEF00EFB101147EABF
:10044000014700FB08F8B84507D9E71900F1FF316B
:100450002ED2B8452CD90238274440EA0940A7EBF0
:100460000807A0FB02894F45C64649461AD317D054
:100470005DB1B3EB0E0267EB010707FA0CFCF2402B
:100480004CEA0202F740C5E9002700263146BDE8E4
:10049000F0872E4628460BE70646E9E61846FDE6B5
:1004A0004345E5D2B8EB020E69EB04010138DFE702
:1004B0000846D2E760468DE78146B9E7664675E7AC
:1004C00030464AE7ACF1020C394413E702383C44A9
:1004D00024E700BF704700BF80B485B000AFF8606C
:1004E000B9607A60FB68074A1A60BB68064A1A60FE
:1004F0007B6880221A6000BF1437BD465DF8047B1C
:10050000704700BF58040020AC040020B0B58EB086
:1005100000AF00F0DFF900F031F800F08FF8134B76
:1005200007F11C041D460FCD0FC495E8070084E8B1
:10053000070007F11C030021184601F042FB0346A7
:100540000B4A13600B4B3C461D460FCD0FC495E87C
:10055000070084E807003B460021184601F031FB04
:100560000346054A136001F025FBFEE7F831000859
:10057000AC06002014320008B006002080B594B00C
:1005800000AF07F1200330220021184602F05CFD85
:1005900007F10C0300221A605A609A60DA601A614F
:1005A0000023BB60234B1B6C224A43F0805313642F
:1005B000204B1B6C03F08053BB60BB6800237B6047
:1005C0001D4B1B6823F440431B4A43F40043136054
:1005D000194B1B6803F440437B607B6802233B623A
:1005E0000123FB6210233B630023BB6307F120035D
:1005F000184600F04BFC0346002B01D000F07AF8BF
:100600000F23FB6000233B6100237B610023BB6160
:100610000023FB6107F10C030021184600F0A6FE41
:100620000346002B01D000F065F800BF5037BD46EF
:1006300080BD00BF003802400070004080B586B029
:1006400000AF3B1D00221A605A609A60DA601A619E
:1006500000233B60104B1B6B0F4A43F001031363F5
:100660000D4B1B6B03F001033B603B680022202114
:100670000A4800F0D7FB20237B600123BB600023E6
:10068000FB6000233B613B1D1946044800F046FA1D
:1006900000BF1837BD4680BD003802400000024050
:1006A00080B582B000AF7860012001F0D6FAFBE798
:1006B00080B582B000AF78602021044800F0CBFB09
:1006C0004FF4FA7001F0C9FAF6E700BF00000240EB
:1006D00080B582B000AF78607B681B68044A9342A3
:1006E00001D100F019F900BF0837BD4680BD00BF39
:1006F0000000014080B400AF00BFBD465DF8047B40
:100700007047000080B582B000AF00237B60124BC1
:100710005B6C114A43F4804353640F4B5B6C03F4EE
:1007200080437B607B6800233B600B4B1B6C0A4A59
:1007300043F080531364084B1B6C03F080533B6001
:100740003B6800220F216FF0010000F0BDF900BFEF
:100750000837BD4680BD00BF0038024080B58CB070
:1007600000AF78600023FB620023BB62002279683F
:10077000192000F0A9F9192000F0C2F90023FB604C
:100780001E4B5B6C1D4A43F0010353641B4B5B6CB7
:1007900003F00103FB60FB6807F1100207F114038B
:1007A0001146184600F09EFF00F088FFF862FB6AD1
:1007B000134AA2FB03239B0C013BBB62114B124A61
:1007C0001A60104B40F2E732DA600E4ABB6A53609F
:1007D0000C4B00221A610B4B00229A60094800F072
:1007E000B3FF0346002B04D1064800F0E2FF0346A6
:1007F00000E0012318463037BD4680BD0038024076
:1008000083DE1B43B40600200000014080B400AF2B
:1008100000BFBD465DF8047B704780B400AFFEE7C3
:1008200080B400AFFEE780B400AFFEE780B400AF55
:10083000FEE780B400AF00BFBD465DF8047B7047A3
:1008400080B500AF024800F0D8FF00BF80BD00BFF8
:10085000B406002080B400AF084BD3F88830074AB4
:1008600043F47003C2F88830044B4FF000629A6082
:1008700000BFBD465DF8047B704700BF00ED00E09F
:10088000DFF834D0002103E00C4B5B5843500431B7
:100890000B480C4B42189A42F6D30B4A02E0002355
:1008A00042F8043B094B9A42F9D3FFF7D3FF02F019
:1008B000A7FBFFF72BFE704700800120683200087D
:1008C000000000203C0400203C040020684400207C
:1008D000FEE7000080B500AF0E4B1B680D4A43F4E5
:1008E000007313600B4B1B680A4A43F48063136068
:1008F000084B1B68074A43F480731360032000F021
:10090000D8F80020FFF72AFFFFF7FCFE0023184667
:1009100080BD00BF003C024080B400AF064B1B7896
:100920001A46064B1B681344044A136000BFBD46B9
:100930005DF8047B704700BF08000020F40600202B
:1009400080B400AF034B1B681846BD465DF8047BBE
:10095000704700BFF406002080B485B000AF786017
:100960007B6803F00703FB600C4BDB68BB60BA6875
:100970004FF6FF031340BB60FB681A02BB681343CA
:1009800043F0BF6343F40033BB60044ABB68D360E9
:1009900000BF1437BD465DF8047B704700ED00E0F2
:1009A00080B400AF044BDB681B0A03F00703184652
:1009B000BD465DF8047B704700ED00E080B483B075
:1009C00000AF0346FB7197F90730002B0BDBFB7977
:1009D00003F01F02074997F907305B09012000FA6D
:1009E00002F241F8232000BF0C37BD465DF8047BBE
:1009F000704700BF00E100E080B483B000AF034661
:100A00003960FB7197F90730002B0ADB3B68DAB2DB
:100A10000C4997F907301201D2B20B4483F8002336
:100A20000AE03B68DAB20849FB7903F00F03043BA4
:100A30001201D2B20B441A7600BF0C37BD465DF8E6
:100A4000047B704700E100E000ED00E080B489B075
:100A500000AFF860B9607A60FB6803F00703FB61E0
:100A6000FB69C3F10703042B28BF0423BB61FB69A7
:100A70000433062B02D9FB69033B00E000237B61B2
:100A80004FF0FF32BB6902FA03F3DA43BB681A4046
:100A90007B699A404FF0FF317B6901FA03F3D94338
:100AA0007B680B40134318462437BD465DF8047B32
:100AB000704780B582B000AF78607868FFF74CFF70
:100AC00000BF0837BD4680BD80B586B000AF034685
:100AD000B9607A60FB7300237B61FFF761FF786187
:100AE0007A68B9687869FFF7B1FF024697F90F3065
:100AF00011461846FFF780FF00BF1837BD4680BD7E
:100B000080B582B000AF0346FB7197F907301846F5
:100B1000FFF754FF00BF0837BD4680BD80B489B0E1
:100B200000AF7860396000237B6100233B610023C4
:100B3000BB610023FB6159E10122FB6902FA03F367
:100B40007B613B681B687A6913403B613A697B694A
:100B50009A4240F048813B685B68012B0BD03B68B0
:100B60005B68022B07D03B685B68112B03D03B68A6
:100B70005B68122B30D17B689B68BB61FB695B00B3
:100B8000032202FA03F3DB43BA691340BB613B68FB
:100B9000DA68FB695B0002FA03F3BA691343BB61CD
:100BA0007B68BA699A607B685B68BB610122FB69FC
:100BB00002FA03F3DB43BA691340BB613B685B682D
:100BC0001B0903F00102FB6902FA03F3BA6913433C
:100BD000BB617B68BA695A607B68DB68BB61FB6993
:100BE0005B00032202FA03F3DB43BA691340BB61E3
:100BF0003B689A68FB695B0002FA03F3BA69134326
:100C0000BB617B68BA69DA603B685B68022B03D022
:100C10003B685B68122B23D1FB69DA087B680832DA
:100C200053F82230BB61FB6903F007039B000F22DE
:100C300002FA03F3DB43BA691340BB613B681A69EC
:100C4000FB6903F007039B0002FA03F3BA6913433D
:100C5000BB61FB69DA087B680832B96943F8221086
:100C60007B681B68BB61FB695B00032202FA03F32C
:100C7000DB43BA691340BB613B685B6803F0030266
:100C8000FB695B0002FA03F3BA691343BB617B683B
:100C9000BA691A603B685B6803F08053002B00F070
:100CA000A2800023FB60574B5B6C564A43F48043A1
:100CB0005364544B5B6C03F48043FB60FB68524A03
:100CC000FB699B08023352F82330BB61FB6903F0D8
:100CD00003039B000F2202FA03F3DB43BA691340BC
:100CE000BB617B68494A934219D07B68484A93426A
:100CF00013D07B68474A93420DD07B68464A9342A3
:100D000007D07B68454A934201D1042308E00723BA
:100D100006E0032304E0022302E0012300E00023B5
:100D2000FA6902F0030292009340BA691343BB616F
:100D30003549FB699B080233BA6941F82320384BD7
:100D40001B68BB613B69DB43BA691340BB613B680D
:100D50005B6803F48033002B03D0BA693B6913430B
:100D6000BB612F4ABB6913602D4B5B68BB613B695C
:100D7000DB43BA691340BB613B685B6803F4003333
:100D8000002B03D0BA693B691343BB61244ABB699A
:100D90005360234B9B68BB613B69DB43BA691340DB
:100DA000BB613B685B6803F48013002B03D0BA6916
:100DB0003B691343BB611A4ABB699360184BDB68FC
:100DC000BB613B69DB43BA691340BB613B685B684D
:100DD00003F40013002B03D0BA693B691343BB61D2
:100DE0000F4ABB69D360FB690133FB61FB690F2BC1
:100DF0007FF6A2AE00BF00BF2437BD465DF8047B7E
:100E0000704700BF00380240003801400000024037
:100E10000004024000080240000C024000100240A2
:100E2000003C014080B483B000AF78600B467B800B
:100E300013467B707B78002B03D07A887B689A619D
:100E400003E07B881A047B689A6100BF0C37BD46BB
:100E50005DF8047B704780B483B000AF78600B46C8
:100E60007B807B685A697B881A407B889A4204D1D0
:100E70007B881A047B689A6102E07A887B689A61B1
:100E800000BF0C37BD465DF8047B704780B586B067
:100E900000AF78607B68002B01D101235BE27B68A7
:100EA0001B6803F00103002B75D0A34B9B6803F074
:100EB0000C03042B0CD0A04B9B6803F00C03082BF5
:100EC00012D19D4B5B6803F48003B3F5800F0BD107
:100ED000994B1B6803F40033002B5BD07B685B6885
:100EE000002B57D1012336E27B685B68B3F5803F66
:100EF00006D1914B1B68904A43F4803313601DE088
:100F00007B685B68B3F5A02F0CD18B4B1B688A4ABA
:100F100043F480231360884B1B68874A43F4803373
:100F200013600BE0844B1B68834A23F48033136007
:100F3000814B1B68804A23F4802313607B685B68C5
:100F4000002B13D0FFF7FCFC386108E0FFF7F8FC3A
:100F500002463B69D31A642B01D90323FBE1764B8C
:100F60001B6803F40033002BF0D014E0FFF7E8FC1B
:100F7000386108E0FFF7E4FC02463B69D31A642BB2
:100F800001D90323E7E16C4B1B6803F40033002B0A
:100F9000F0D100E000BF7B681B6803F00203002B68
:100FA00063D0654B9B6803F00C03002B0BD0624BA6
:100FB0009B6803F00C03082B1CD15F4B5B6803F4A8
:100FC0008003002B16D15C4B1B6803F00203002B3F
:100FD00005D07B68DB68012B01D00123BBE1564BB8
:100FE0001B6823F0F8027B681B69DB00524913433E
:100FF0000B603AE07B68DB68002B20D04F4B01226E
:101000001A60FFF79DFC386108E0FFF799FC024683
:101010003B69D31A022B01D903239CE1464B1B6881
:1010200003F00203002BF0D0434B1B6823F0F802BF
:101030007B681B69DB00404913430B6015E03F4BA5
:1010400000221A60FFF77CFC386108E0FFF778FCAB
:1010500002463B69D31A022B01D903237BE1364BAD
:101060001B6803F00203002BF0D17B681B6803F0C0
:101070000803002B30D07B685B69002B16D0304B07
:1010800001221A60FFF75CFC386108E0FFF758FCAA
:1010900002463B69D31A022B01D903235BE1264B9D
:1010A0005B6F03F00203002BF0D015E0244B00220D
:1010B0001A60FFF745FC386108E0FFF741FC024683
:1010C0003B69D31A022B01D9032344E11A4B5B6F0E
:1010D00003F00203002BF0D17B681B6803F00403CC
:1010E000002B00F0A0800023FB75134B1B6C03F05A
:1010F0008053002B0FD10023BB600F4B1B6C0E4A9B
:1011000043F0805313640C4B1B6C03F08053BB60A3
:10111000BB680123FB750B4B1B6803F48073002B2A
:1011200021D1084B1B68074A43F480731360FFF713
:1011300007FC386111E000BF003802400000474260
:10114000800E474200700040FFF7FAFB02463B6901
:10115000D31A022B01D90323FDE0814B1B6803F452
:101160008073002BF0D07B689B68012B06D17D4BF0
:101170001B6F7C4A43F0010313671CE07B689B688C
:10118000052B0CD1774B1B6F764A43F00403136792
:10119000744B1B6F734A43F0010313670BE0714BF1
:1011A0001B6F704A23F0010313676E4B1B6F6D4A70
:1011B00023F0040313677B689B68002B15D0FFF7AF
:1011C000BFFB38610AE0FFF7BBFB02463B69D31A5D
:1011D00041F28832934201D90323BCE0614B1B6F7B
:1011E00003F00203002BEED014E0FFF7A9FB3861F7
:1011F0000AE0FFF7A5FB02463B69D31A41F28832A9
:10120000934201D90323A6E0564B1B6F03F0020360
:10121000002BEED1FB7D012B05D1524B1B6C514AAB
:1012200023F0805313647B689B69002B00F092804D
:101230004C4B9B6803F00C03082B5CD07B689B69CC
:10124000022B41D1484B00221A60FFF779FB38612D
:1012500008E0FFF775FB02463B69D31A022B01D960
:10126000032378E03F4B1B6803F00073002BF0D1A1
:101270007B68DA697B681B6A1A437B685B6A9B013F
:101280001A437B689B6A5B08013B1B041A437B681B
:10129000DB6A1B06334913434B60334B01221A6050
:1012A000FFF74EFB386108E0FFF74AFB02463B6957
:1012B000D31A022B01D903234DE02A4B1B6803F0FC
:1012C0000073002BF0D045E0274B00221A60FFF797
:1012D00037FB386108E0FFF733FB02463B69D31A5E
:1012E000022B01D9032336E01E4B1B6803F0007369
:1012F000002BF0D12EE07B689B69012B01D10123EB
:1013000029E0184B5B68FB60FB6803F480027B6894
:10131000DB699A421CD1FB6803F03F027B681B6AC1
:101320009A4215D1FA6847F6C07313407A68526A38
:1013300093420DD1FB6803F440327B689B6A9A426A
:1013400006D1FB6803F070627B68DB6A9A4201D0C9
:10135000012300E0002318461837BD4680BD00BFBA
:1013600000700040003802406000474280B584B001
:1013700000AF786039607B68002B01D10123CCE09D
:10138000684B1B6803F00F033A689A420CD9654B0F
:101390003A68D2B21A70634B1B6803F00F033A68C5
:1013A0009A4201D00123B8E07B681B6803F0020376
:1013B000002B20D07B681B6803F00403002B05D0B2
:1013C000594B9B68584A43F4E05393607B681B6811
:1013D00003F00803002B05D0534B9B68524A43F49B
:1013E00060439360504B9B6823F0F0027B689B68DE
:1013F0004D4913438B607B681B6803F00103002B8E
:1014000044D07B685B68012B07D1474B1B6803F412
:101410000033002B19D101237FE07B685B68022B2E
:1014200003D07B685B68032B07D13F4B1B6803F03D
:101430000073002B09D101236FE03B4B1B6803F0C5
:101440000203002B01D1012367E0374B9B6823F097
:1014500003027B685B68344913438B60FFF770FAC3
:10146000F8600AE0FFF76CFA0246FB68D31A41F213
:101470008832934201D903234FE02B4B9B6803F042
:101480000C027B685B689B009A42EBD1254B1B6882
:1014900003F00F033A689A420CD2224B3A68D2B258
:1014A0001A70204B1B6803F00F033A689A4201D070
:1014B000012332E07B681B6803F00403002B08D093
:1014C000194B9B6823F4E0527B68DB681649134391
:1014D0008B607B681B6803F00803002B09D0124B5C
:1014E0009B6823F460427B681B69DB000E49134351
:1014F0008B6000F021F802460B4B9B681B0903F040
:101500000F030A49CB5C22FA03F3094A1360094B23
:101510001B681846FFF722F9002318461037BD460E
:1015200080BD00BF003C0240003802403832000855
:101530000000002004000020B0B584B000AF0021FE
:1015400079600021F960002139600021B9605249B9
:10155000896801F00C0108290DD0082900F2948057
:10156000002902D0042903D08EE04C4BBB608EE0F2
:101570004B4BBB608BE04849496801F03F01796003
:101580004549496801F48001002924D0424949684D
:10159000890908464FF0000140F2FF144FF00005A2
:1015A00000EA040201EA05033D4901FB03F00021C2
:1015B00001FB02F144183A49A2FB010163181946E4
:1015C0007B681A464FF00003FEF70AFE02460B4600
:1015D0001346FB604AE0304B5B689B091A464FF0AC
:1015E000000340F2FF104FF0000102EA000403EA9A
:1015F0000105204629464FF000024FF000034B0141
:1016000043EAD063420110461946001B61EB050115
:101610004FF000024FF000038B0143EA9063820118
:10162000121A63EB01034FF000004FF00001D900E4
:1016300041EA5271D00002460B46121945EB0303F2
:101640004FF000004FF00001990241EA92519002E0
:1016500002460B46104619467B681A464FF00003B7
:10166000FEF7BEFD02460B461346FB600A4B5B6865
:101670001B0C03F0030301335B003B60FA683B681B
:10168000B2FBF3F3BB6002E0044BBB6000BFBB687E
:1016900018461037BD46B0BD003802400024F400A3
:1016A00040787D0180B400AF034B1B681846BD46EF
:1016B0005DF8047B704700BF0000002080B500AFDC
:1016C000FFF7F0FF0246054B9B685B0B03F0070337
:1016D0000349CB5C22FA03F3184680BD0038024070
:1016E0004832000880B483B000AF786039607B680E
:1016F0000F221A60124B9B6803F003027B685A604A
:101700000F4B9B6803F0F0027B689A600C4B9B6860
:1017100003F4E0527B68DA60094B9B68DB0803F452
:10172000E0527B681A61074B1B6803F00F023B68AD
:101730001A6000BF0C37BD465DF8047B704700BFE0
:1017400000380240003C024080B582B000AF7860B3
:101750007B68002B01D101231DE07B6893F83D30AD
:10176000DBB2002B06D17B68002283F83C2078682E
:1017700000F015F87B68022283F83D207B681A6828
:101780007B6804331946104600F068F97B68012233
:1017900083F83D20002318460837BD4680BD80B43D
:1017A00083B000AF786000BF0C37BD465DF8047BA6
:1017B000704780B485B000AF78607B681B68DA68DA
:1017C0007B681B6842F00102DA607B681B689B68DB
:1017D00003F00703FB60FB68062B07D07B681B68E0
:1017E0001A687B681B6842F001021A6000231846E1
:1017F0001437BD465DF8047B704780B582B000AFFA
:1018000078607B681B681B6903F00203022B22D1FE
:101810007B681B68DB6803F00203022B1BD17B682B
:101820001B686FF002021A617B6801221A777B68DD
:101830001B689B6903F00303002B03D0786800F05A
:10184000EEF805E0786800F0E0F8786800F0F1F86C
:101850007B6800221A777B681B681B6903F004030E
:10186000042B22D17B681B68DB6803F00403042B84
:101870001BD17B681B686FF004021A617B6802222F
:101880001A777B681B689B6903F44073002B03D0B5
:10189000786800F0C4F805E0786800F0B6F8786879
:1018A00000F0C7F87B6800221A777B681B681B6909
:1018B00003F00803082B22D17B681B68DB6803F068
:1018C0000803082B1BD17B681B686FF008021A61A4
:1018D0007B6804221A777B681B68DB6903F00303CB
:1018E000002B03D0786800F09AF805E0786800F0E3
:1018F0008CF8786800F09DF87B6800221A777B6886
:101900001B681B6903F01003102B22D17B681B6836
:10191000DB6803F01003102B1BD17B681B686FF092
:1019200010021A617B6808221A777B681B68DB69E2
:1019300003F44073002B03D0786800F070F805E0E2
:10194000786800F062F8786800F073F87B6800222D
:101950001A777B681B681B6903F00103012B0ED10A
:101960007B681B68DB6803F00103012B07D17B68F0
:101970001B686FF001021A617868FEF7A9FE7B68A8
:101980001B681B6903F08003802B0ED17B681B68EA
:10199000DB6803F08003802B07D17B681B686FF046
:1019A00080021A61786800F0E3F87B681B681B69A5
:1019B00003F04003402B0ED17B681B68DB6803F00B
:1019C0004003402B07D17B681B686FF040021A610F
:1019D000786800F038F87B681B681B6903F0200307
:1019E000202B0ED17B681B68DB6803F02003202BC3
:1019F00007D17B681B686FF020021A61786800F0DD
:101A0000ADF800BF0837BD4680BD80B483B000AFDD
:101A1000786000BF0C37BD465DF8047B704780B42A
:101A200083B000AF786000BF0C37BD465DF8047B23
:101A3000704780B483B000AF786000BF0C37BD46FC
:101A40005DF8047B704780B483B000AF786000BF5E
:101A50000C37BD465DF8047B7047000080B485B04C
:101A600000AF786039607B681B68FB607B68344A34
:101A700093420FD07B68B3F1804F0BD07B68314A23
:101A8000934207D07B68304A934203D07B682F4A49
:101A9000934208D1FB6823F07003FB603B685B68EE
:101AA000FA681343FB607B68254A93421BD07B682E
:101AB000B3F1804F17D07B68224A934213D07B68E2
:101AC000214A93420FD07B68204A93420BD07B6817
:101AD0001F4A934207D07B681E4A934203D07B681B
:101AE0001D4A934208D1FB6823F44073FB603B68B6
:101AF000DB68FA681343FB60FB6823F080023B68F5
:101B00005B691343FB607B68FA681A603B689A68FC
:101B10007B68DA623B681A687B689A627B68084A6D
:101B2000934203D13B681A697B681A637B68012280
:101B30005A6100BF1437BD465DF8047B704700BF93
:101B4000000001400004004000080040000C00407C
:101B500000400140004401400048014080B483B08F
:101B600000AF786000BF0C37BD465DF8047B70475E
:101B700080B483B000AF786000BF0C37BD465DF81D
:101B8000047B704780B485B000AF0346FB80002320
:101B9000FB60B7F90630842B05D0B7F90620FB6847
:101BA00013440333FB60FB6818461437BD465DF8E9
:101BB000047B704780B500AF00F0C8FE00231846D4
:101BC00080BDF0B589B004AF786039607B685B692F
:101BD000002B20D07B689B69002B1CD07B685C6845
:101BE0007B681D687B681E697B68B3F908301846FE
:101BF000FFF7C8FF01467B685B697A6892690292C9
:101C0000019300913B6832462946204600F0D6FCFD
:101C10000346FB601CE07B685C687B681D687B6832
:101C20001B699EB27B68B3F908301846FFF7AAFF1C
:101C3000024607F10C03019300923B6832462946A5
:101C4000204600F018FD0346012B01D0002300E0E0
:101C5000FB6818461437BD46F0BD80B584B000AFB0
:101C600078607B68FB60FB68002B01D0FB6800E0BC
:101C70000123184600F036FE002318461037BD46F3
:101C800080BD80B483B000AF78607B6803F1080248
:101C90007B685A607B684FF0FF329A607B6803F183
:101CA00008027B68DA607B6803F108027B681A61CE
:101CB0007B6800221A6000BF0C37BD465DF8047BCC
:101CC000704780B483B000AF78607B6800221A61EF
:101CD00000BF0C37BD465DF8047B704780B485B00B
:101CE00000AF786039607B685B68FB603B68FA68CE
:101CF0005A60FB689A683B689A60FB689B683A6820
:101D00005A60FB683A689A603B687A681A617B6837
:101D10001B685A1C7B681A6000BF1437BD465DF80B
:101D2000047B704780B485B000AF786039603B6851
:101D30001B68BB60BB68B3F1FF3F03D17B681B69C5
:101D4000FB600CE07B680833FB6002E0FB685B68CB
:101D5000FB60FB685B681B68BA689A42F6D2FB6856
:101D60005A683B685A603B685B683A689A603B68AF
:101D7000FA689A60FB683A685A603B687A681A6148
:101D80007B681B685A1C7B681A6000BF1437BD460D
:101D90005DF8047B704780B485B000AF78607B68E5
:101DA0001B69FB607B685B687A6892689A607B68F5
:101DB0009B687A6852685A60FB685B687A689A42E6
:101DC00003D17B689A68FB685A607B6800221A61BD
:101DD000FB681B685A1EFB681A60FB681B68184684
:101DE0001437BD465DF8047B7047000080B485B0B1
:101DF00000AFF860B9607A60FB68043BFB60FB6889
:101E00004FF080721A60FB68043BFB60BB6823F0F4
:101E10000102FB681A60FB68043BFB600C4AFB682C
:101E20001A60FB68143BFB607A68FB681A60FB6809
:101E3000043BFB60FB686FF002021A60FB68203B0A
:101E4000FB60FB6818461437BD465DF8047B70479D
:101E5000551E000880B485B000AF00237B60124B94
:101E60001B68B3F1FF3F0AD04FF0500383F3118892
:101E7000BFF36F8FBFF34F8FFB6000BFFEE74FF0E4
:101E8000500383F31188BFF36F8FBFF34F8FBB6095
:101E900000BF00BF7B68002BFCD000BF00BF143721
:101EA000BD465DF8047B70470C0000200000000078
:101EB000074B19680868B0E8F04F80F30988BFF352
:101EC0006F8F4FF0000080F311887047AFF30080F0
:101ED0001843002000BF00BF08480068006880F376
:101EE00008884FF0000080F3148862B661B6BFF333
:101EF0004F8FBFF36F8F00DF00BF00BF08ED00E022
:101F000080B586B000AF464B1B68464A93420AD163
:101F10004FF0500383F31188BFF36F8FBFF34F8FE0
:101F20003B6100BFFEE73E4B1B683F4A93420AD12C
:101F30004FF0500383F31188BFF36F8FBFF34F8FC0
:101F4000FB6000BFFEE7394B7B617B691B78DBB22E
:101F50007B607B69FF221A707B691B78DBB2FB70A8
:101F6000FB78DBB203F05003DAB2314B1A70314B1D
:101F700007221A6009E02F4B1B68013B2D4A1360B2
:101F8000FB78DBB25B00DBB2FB70FB78DBB203F00B
:101F90008003802BEFD0274B1B68C3F10703042B72
:101FA0000AD04FF0500383F31188BFF36F8FBFF354
:101FB0004F8FBB6000BFFEE71E4B1B681B021D4A14
:101FC00013601C4B1B6803F4E0631A4A13607B68C0
:101FD000DAB27B691A70184B1B68174A43F4700316
:101FE0001360154B1B68144A43F07043136000F0F4
:101FF000DDF8124B00221A6000F0FCF8104B1B6851
:102000000F4A43F040431360FFF766FF00F060FEA5
:10201000FFF720FF002318461837BD4680BD00BFDC
:1020200000ED00E071C20F4170C20F4100E400E01A
:10203000F8060020FC06002020ED00E00C00002047
:1020400034EF00E080B483B000AF4FF0500383F36F
:102050001188BFF36F8FBFF34F8F7B6000BF0F4BB3
:102060001B6801330D4A13600C4B1B68012B0FD109
:102070000B4B1B68DBB2002B0AD04FF0500383F3ED
:102080001188BFF36F8FBFF34F8F3B6000BFFEE738
:1020900000BF0C37BD465DF8047B70470C00002084
:1020A00004ED00E080B483B000AF124B1B68002B3E
:1020B0000AD14FF0500383F31188BFF36F8FBFF342
:1020C0004F8F7B6000BFFEE70A4B1B68013B094A4C
:1020D0001360084B1B68002B05D100233B603B6855
:1020E00083F3118800BF00BF0C37BD465DF8047B49
:1020F000704700BF0C00002000000000000000003E
:10210000EFF30980BFF36F8F154B1A681EF0100FA5
:1021100008BF20ED108A20E9F04F10602DE909007A
:102120004FF0500080F31188BFF34F8FBFF36F8FD4
:1021300000F0CEFD4FF0000080F3118809BC196853
:102140000868B0E8F04F1EF0100F08BFB0EC108A1E
:1021500080F30988BFF36F8F704700BFAFF3008033
:102160001843002000BF00BF80B582B000AF4FF021
:10217000500383F31188BFF36F8FBFF34F8F7B60E2
:1021800000BF00F0EDFC0346002B03D0064B4FF0E0
:1021900080521A6000233B603B6883F3118800BFC4
:1021A00000BF0837BD4680BD04ED00E080B400AF3D
:1021B0000B4B00221A600B4B00221A600A4B1B6863
:1021C0000A4AA2FB03239B09094A013B1360044B03
:1021D00007221A6000BFBD465DF8047B704700BF50
:1021E00010E000E018E000E000000020D34D621095
:1021F00014E000E0DFF80C00016841F470010160B8
:10220000704700BF88ED00E080B58AB000AF78600D
:102210000023FB6100F0FAFB584B1B68002B01D137
:1022200000F010F9564B1A687B681340002B40F001
:102230008E807B68002B1DD008227B6813447B6056
:102240007B6803F00703002B14D07B6823F007039F
:1022500008337B607B6803F00703002B0AD04FF044
:10226000500383F31188BFF36F8FBFF34F8F7B61F0
:1022700000BFFEE77B68002B69D0424B1B687A6881
:102280009A4264D8404B3B623F4B1B687B6204E040
:102290007B6A3B627B6A1B687B627B6A5B687A68ED
:1022A0009A4203D97B6A1B68002BF1D1334B1B6820
:1022B0007A6A9A424BD03B6A1B6808221344FB613E
:1022C0007B6A1A683B6A1A607B6A5A687B68D21A12
:1022D00008235B009A421FD97A6A7B681344BB616A
:1022E000BB6903F00703002B0AD04FF0500383F3C0
:1022F0001188BFF36F8FBFF34F8F3B6100BFFEE7C5
:102300007B6A5A687B68D21ABB695A607B6A7A68B2
:102310005A60B86900F0F8F81A4B1A687B6A5B6873
:10232000D31A184A1360174B1A68184B1B689A4245
:1023300003D2144B1B68154A13607B6A5A68104B12
:102340001B681A437B6A5A607B6A00221A6000F09D
:102350006BFBFB6903F00703002B0AD04FF050031F
:1023600083F31188BFF36F8FBFF34F8FFB6000BF04
:10237000FEE7FB6918462837BD4680BD08430020AC
:10238000144300200C430020004300201043002091
:1023900080B586B000AF78607B687B617B68002B7E
:1023A00048D008235B427A6913447B617B693B61B7
:1023B0003B695A68214B1B681340002B0AD14FF030
:1023C000500383F31188BFF36F8FBFF34F8FFB6010
:1023D00000BFFEE73B691B68002B0AD04FF050039B
:1023E00083F31188BFF36F8FBFF34F8FBB6000BFC4
:1023F000FEE73B695A68114B1B681340002B19D04C
:102400003B691B68002B15D13B695A680B4B1B6855
:10241000DB431A403B695A6000F0F8FA3B695A689E
:10242000074B1B681344064A1360386900F06CF8C8
:1024300000F0FAFA00BF1837BD4680BD14430020F3
:102440000C43002080B485B000AF4FF47053BB60E4
:10245000274BFB60FB6803F00703002B0CD0FB68E5
:102460000733FB60FB6823F00703FB60BA68FB6877
:10247000D31A1F4A1344BB60FB687B601D4A7B680C
:1024800013601C4B00225A607B68BA681344FB60DF
:102490000822FB689B1AFB60FB6823F00703FB60C4
:1024A000FB68154A1360144B1B6800225A60124BDC
:1024B0001B6800221A607B683B603B68FA68D21A8E
:1024C0003B685A600C4B1A683B681A603B685B6853
:1024D0000A4A13603B685B68094A1360094B4FF076
:1024E00000421A6000BF1437BD465DF8047B704798
:1024F0000007002000430020084300201043002074
:102500000C4300201443002080B485B000AF7860F5
:10251000284BFB6002E0FB681B68FB60FB681B68E4
:102520007A689A42F7D8FB68BB60FB685B68BA6858
:1025300013447A689A4208D1FB685A687B685B68E2
:102540001A44FB685A60FB687B607B68BB607B68F1
:102550005B68BA681A44FB681B689A4218D1FB682A
:102560001A68154B1B689A420DD07B685A68FB6845
:102570001B685B681A447B685A60FB681B681A68B2
:102580007B681A6008E00C4B1A687B681A6003E0ED
:10259000FB681A687B681A60FA687B689A4202D006
:1025A000FB687A681A6000BF1437BD465DF8047B8B
:1025B000704700BF004300200843002080B58EB064
:1025C00004AFF860B9607A603B607B6B002B0AD186
:1025D0004FF0500383F31188BFF36F8FBFF34F8F1A
:1025E0003B6200BFFEE7BB6B002B0AD14FF05003EC
:1025F00083F31188BFF36F8FBFF34F8FFB6100BF71
:10260000FEE754233B613B69542B0AD04FF0500343
:1026100083F31188BFF36F8FBFF34F8FBB6100BF90
:10262000FEE73B69BB6B002B1ED07B6B002B1BD0E6
:10263000BB6B7B627B6A7A6B1A637B6A022283F8CC
:102640005120002303937B6A029307F11403019343
:102650003B6B00933B687A68B968F86800F050F803
:10266000786A00F0D5F801E000237B617B691846A9
:102670002837BD4680BD80B58CB004AFF860B96026
:102680003B601346FB80FB889B001846FFF7BCFDB0
:1026900078617B69002B0ED05420FFF7B5FDF861FF
:1026A000FB69002B03D0FB697A691A6305E078693E
:1026B000FFF76EFE01E00023FB61FB69002B17D0E2
:1026C000FB69002283F85120FA8800230393FB69F9
:1026D0000293FB6A0193BB6A00933B68B968F86890
:1026E00000F00EF8F86900F093F80123BB6102E0F6
:1026F0004FF0FF33BB61BB6918462037BD4680BD34
:1027000080B588B000AFF860B9607A603B603B6B21
:102710001A6B7B6803F18043013B9B001344BB6150
:10272000BB6923F00703BB61BB6903F00703002B00
:102730000AD04FF0500383F31188BFF36F8FBFF3BC
:102740004F8F7B6100BFFEE7BB68002B1FD00023CB
:10275000FB6112E0BA68FB69134419783A6BFB69B4
:10276000134434330A461A70BA68FB6913441B7861
:10277000002B06D0FB690133FB61FB690F2BE9D904
:1027800000E000BF3B6B002283F8432003E03B6B7B
:10279000002283F83420BB6A062B01D90623BB62D2
:1027A0003B6BBA6ADA623B6BBA6A5A643B6B0022D3
:1027B0009A643B6B04331846FFF783FA3B6B18337C
:1027C0001846FFF77EFA3B6B3A6B1A61BB6AC3F19E
:1027D00007023B6B9A613B6B3A6B5A623B6B002280
:1027E000DA643B6B002283F850203A68F968B869D4
:1027F000FFF7FCFA02463B6B1A60FB6A002B02D023
:10280000FB6A3A6B1A6000BF2037BD4680BD0000EE
:1028100080B582B000AF7860FFF714FC2A4B1B68CC
:102820000133294A1360294B1B68002B09D1274A21
:102830007B681360244B1B68012B10D100F0BCFA9D
:102840000DE0234B1B68002B09D1204B1B68DA6A73
:102850007B68DB6A9A4202D81C4A7B6813601D4B76
:102860001B6801331B4A13607B68DB6A01229A40B4
:10287000194B1B681343184A13607B68DA6A1346C6
:102880009B0013449B00154A1A447B680433194685
:102890001046FFF723FAFFF705FC0D4B1B68002BD2
:1028A0000ED00A4B1B68DA6A7B68DB6A9A4207D251
:1028B0000B4B4FF080521A60BFF34F8FBFF36F8FF7
:1028C00000BF0837BD4680BD1844002018430020D3
:1028D0002444002034440020204400201C430020D5
:1028E00004ED00E080B584B000AF78600023FB60A9
:1028F0007B68002B17D0134B1B68002B0AD04FF0BE
:10290000500383F31188BFF36F8FBFF34F8FBB600A
:1029100000BFFEE700F07AF80021786800F00AFBBB
:1029200000F082F8F860FB68002B07D1064B4FF0EF
:1029300080521A60BFF34F8FBFF36F8F00BF103705
:10294000BD4680BD4044002004ED00E080B58AB063
:1029500004AF0023BB6000237B603A46391D07F1BA
:1029600008031846FDF7B8FD39687B68BA6802921B
:1029700001930023009300230A461E491E48FFF7D7
:102980001DFE03461D4A13601C4B1B68002B02D022
:1029900001237B6101E000237B617B69012B16D160
:1029A0004FF0500383F31188BFF36F8FBFF34F8F46
:1029B0003B6100BF124B4FF0FF321A60114B0122F6
:1029C0001A60114B00221A60FFF79AFA0EE07B6939
:1029D000B3F1FF3F0AD14FF0500383F31188BFF3E7
:1029E0006F8FBFF34F8FFB6000BFFEE700BF18374C
:1029F000BD4680BD30320008892D00083C440020CF
:102A000038440020244400201C44002080B400AF3F
:102A1000044B1B680133034A136000BFBD465DF8D9
:102A2000047B70474044002080B584B000AF002391
:102A3000FB600023BB60414B1B68002B0AD14FF0A9
:102A4000500383F31188BFF36F8FBFF34F8F3B6049
:102A500000BFFEE7FFF7F6FA384B1B68013B374A29
:102A60001360364B1B68002B61D1354B1B68002B64
:102A70005DD02EE0334BDB68DB68FB60FB6818330E
:102A80001846FFF788F9FB6804331846FFF783F907
:102A9000FB68DB6A01229A402B4B1B6813432A4ACE
:102AA0001360FB68DA6A13469B0013449B00274AB5
:102AB0001A44FB68043319461046FFF70FF9FB6808
:102AC000DA6A234B1B68DB6A9A4202D3214B01224C
:102AD0001A601C4B1B68002BCCD1FB68002B01D06B
:102AE00000F008FA1C4B1B687B607B68002B10D041
:102AF00000F036F80346002B02D0164B01221A6074
:102B00007B68013B7B607B68002BF1D1124B00227C
:102B10001A60104B1B68002B09D00123BB600F4BC0
:102B20004FF080521A60BFF34F8FBFF36F8FFFF7E4
:102B3000B9FABB6818461037BD4680BD4044002036
:102B400018440020D8430020204400201C430020CB
:102B5000184300202C4400202844002004ED00E00D
:102B600080B586B000AF00237B614E4B1B68002B05
:102B700040F088804C4B1B6801333B614A4A3B69FB
:102B800013603B69002B20D1484B1B681B68002B4E
:102B90000AD04FF0500383F31188BFF36F8FBFF358
:102BA0004F8F3B6000BFFEE7404B1B68FB60404B14
:102BB0001B683E4A13603E4AFB6813603D4B1B682E
:102BC00001333C4A136000F095F93B4B1B683A69AE
:102BD0009A4248D3354B1B681B68002B04D1364BF7
:102BE0004FF0FF321A603EE0304B1B68DB68DB6859
:102BF000BB60BB685B687B603A697B689A4203D2C2
:102C00002D4A7B6813602EE0BB6804331846FFF73B
:102C1000C2F8BB689B6A002B04D0BB681833184607
:102C2000FFF7B9F8BB68DB6A01229A40234B1B68A7
:102C30001343224A1360BB68DA6A13469B001344AD
:102C40009B001F4A1A44BB68043319461046FFF71D
:102C500045F8BB68DA6A1B4B1B68DB6A9A42B9D33A
:102C600001237B61B6E7174B1B68DA6A14491346E8
:102C70009B0013449B000B441B68012B07D90123C5
:102C80007B6104E0104B1B6801330F4A13600F4B4C
:102C90001B68002B01D001237B617B691846183724
:102CA000BD4680BD404400201C440020D04300208D
:102CB000D443002030440020384400202044002029
:102CC0001C43002018430020284400202C440020EE
:102CD00080B487B000AF274B1B68002B03D0264B76
:102CE00001221A603FE0244B00221A60234B1B682C
:102CF000FB60FB68B3FA83F3FB72FB7AC3F11F033B
:102D00007B611F497A6913469B0013449B000B4467
:102D10001B68002B0AD14FF0500383F31188BFF3D7
:102D20006F8FBFF34F8F7B6000BFFEE77A6913465A
:102D30009B0013449B00124A13443B613B695B6850
:102D40005A683B695A603B695A683B6908339A4242
:102D500004D13B695B685A683B695A603B695B68B0
:102D6000DB68084A136000BF1C37BD465DF8047B72
:102D7000704700BF404400202C4400202044002025
:102D80001C4300201843002080B582B000AF78605B
:102D900000F052F8064B1B68012BF9D9054B4FF098
:102DA00080521A60BFF34F8FBFF36F8FF0E700BF01
:102DB0001C43002004ED00E080B582B000AF00238A
:102DC0007B600CE07A6813469B0013449B00124A18
:102DD00013441846FEF755FF7B6801337B607B6820
:102DE000062BEFD90D48FEF74CFF0D48FEF749FFC3
:102DF0000C48FEF746FF0C48FEF743FF0B48FEF772
:102E000040FF0B4B054A1A600A4B054A1A6000BF87
:102E10000837BD4680BD00BF1C430020A8430020EA
:102E2000BC430020D8430020EC4300200444002091
:102E3000D0430020D443002080B582B000AF19E019
:102E4000FFF700F9104BDB68DB687B607B680433BD
:102E50001846FEF7A0FF0D4B1B68013B0B4A1360A1
:102E60000B4B1B68013B0A4A1360FFF71BF978689C
:102E700000F010F8064B1B68002BE1D100BF00BF2B
:102E80000837BD4680BD00BFEC4300201844002039
:102E90000044002080B584B000AF78607B6893F870
:102EA0005130002B08D17B681B6B1846FFF770FA76
:102EB0007868FFF76DFA18E07B6893F85130012BC2
:102EC00003D17868FFF764FA0FE07B6893F851301C
:102ED000022B0AD04FF0500383F31188BFF36F8F9A
:102EE000BFF34F8FFB6000BFFEE700BF1037BD464A
:102EF00080BD000080B483B000AF0C4B1B681B6822
:102F0000002B04D10A4B4FF0FF321A6008E0074B48
:102F10001B68DB68DB687B607B685B68044A136066
:102F200000BF0C37BD465DF8047B7047D0430020DE
:102F30003844002080B584B000AF78603960294BF8
:102F40001B68FB60284B1B6804331846FEF723FF01
:102F50000346002B0BD1244B1B68DB6A012202FACB
:102F600003F3DA43214B1B681340204A13607B684C
:102F7000B3F1FF3F0AD13B68002B07D01A4B1B6807
:102F8000043319461A48FEF7A9FE26E0FA687B6862
:102F90001344BB60144B1B68BA685A60BA68FB687C
:102FA0009A4209D2134B1A680F4B1B680433194617
:102FB0001046FEF7B7FE10E00F4B1A680A4B1B686D
:102FC000043319461046FEF7ADFE0C4B1B68BA6879
:102FD0009A4202D2094ABB68136000BF1037BD464F
:102FE00080BD00BF1C440020184300202044002066
:102FF00004440020D4430020D04300203844002063
:1030000070B50D4E0D4D761BB61006D0002455F848
:10301000043B01349847A642F9D1094E094D761B6D
:1030200000F0D2F8B61006D0002455F8043B013465
:103030009847A642F9D170BD5C3200085C320008A6
:10304000643200085C320008F0B4860746D0541E93
:10305000002A3CD0CAB2034601E0013C37D303F852
:10306000012B9D07F9D1032C2AD9CDB245EA0525BC
:103070000F2C45EA054534D9A4F1100222F00F0CBB
:1030800003F120071609674403F1100242E90455D1
:1030900042E902551032BA42F8D1721C14F00C0FFA
:1030A00003EB021204F00F0613D0331F23F00303C7
:1030B0000433134442F8045B9342FBD106F003044B
:1030C0002CB1CAB21C4403F8012B9C42FBD1F0BCCA
:1030D000704734461346002CF3D1F8E714460346F4
:1030E000C1E71A462646E0E7024B13B1024800F05A
:1030F00005B87047000000000931000800230146B0
:103100001A46184600F01AB838B5084B084D5B1B34
:103110009C1007D0043B1D44013C55F804399847E6
:10312000002CF9D1BDE8384000F054B868320008EE
:1031300064320008704700BF704700BF2DE9F047B8
:10314000DFF880A00646DAF8000098460F46914660
:10315000FFF7F0FF1A4B1B68D3F8484124B36568AA
:103160001F2D26DC5EB9AB1C0135DAF80000656066
:1031700044F82370FFF7E0FF0020BDE8F08704EB80
:1031800085030121C3F88890D4F88821A9400A4317
:10319000022EC4F88821C3F80881E4D1D4F88C3118
:1031A0001943C4F88C11DEE703F5A674C3F848414F
:1031B000D5E7DAF80000FFF7BFFF4FF0FF30DCE79C
:1031C0005032000838040020F8B500BFF8BC08BC35
:1031D0009E467047F8B500BFF8BC08BC9E467047D5
:1031E00064656661756C745461736B006D795461CC
:1031F000736B303200000000E0310008A1060008C7
:10320000000000000000000080000000000000003E
:1032100000000000EC310008B1060008FDFF0000CE
:10322000000000008000000000000000000000001E
:1032300049444C4500000000000000000000000070
:10324000010203040607080900000000010203044C
:04325000100000204A
:08325400BCCFFF7F0100000068
:08325C00E9300008C50100087B
:04326400A1010008BC
:103268000024F4001000000001000000AAAAAAAA85
:1032780000000000FC02002064030020CC030020B2
:103288000000000000000000000000000000000036
:103298000000000000000000000000000000000026
:1032A8000000000000000000000000000000000016
:1032B8000000000000000000000000000000000006
:1032C80000000000000000000000000000000000F6
:1032D80000000000000000000000000000000000E6
:1032E80000000000000000000000000000000000D6
:1032F80000000000000000000000000000000000C6
:1033080000000000000000000000000000000000B5
:1033180000000000000000000100000000000000A4
:103328000E33CDAB34126DE6ECDE05000B00000069
:103338000000000000000000000000000000000085
:103348000000000000000000000000000000000075
:103358000000000000000000000000000000000065
:103368000000000000000000000000000000000055
:0C3698000000000000000000444400207E
:040000050800088166
:00000001FF
