:020000040800F2
:10000000008001205507000815070008190700089F
:100010001D07000821070008250700080000000050
:10002000000000000000000000000000A114000813
:100030002907000800000000311500089515000888
:10004000A5070008A5070008A5070008A5070008E0
:10005000A5070008A5070008A5070008A5070008D0
:10006000A5070008A5070008A5070008A5070008C0
:10007000A5070008A5070008A5070008A5070008B0
:10008000A5070008A5070008A50700080000000054
:10009000000000000000000000000000A5070008AC
:1000A000A50700082D070008A5070008A5070008F8
:1000B000A5070008A5070008A5070008A507000870
:1000C000A5070008A5070008A5070008A507000860
:1000D000A5070008A5070008A50700080000000004
:1000E000A5070008A5070008A507000800000000F4
:1000F000000000000000000000000000A50700084C
:1001000000000000A5070008A5070008A5070008D3
:1001100000000000000000000000000000000000DF
:10012000A5070008A5070008A5070008A5070008FF
:10013000A50700080000000000000000000000000B
:10014000000000000000000000000000A5070008FB
:10015000A5070008A5070008A5070008A5070008CF
:10016000A5070008A5070008000000000000000027
:10017000000000000000000000000000000000007F
:1001800000000000A50700080000000000000000BB
:04019000A5070008B7
:1001A00010B5054C237833B9044B13B10448AFF3B1
:1001B00000800123237010BD3C04002000000000DB
:1001C0009C24000808B5034B1BB103490348AFF357
:1001D000008008BD00000000400400209C240008AE
:1001E00053B94AB9002908BF00281CBF4FF0FF319E
:1001F0004FF0FF3000F06EB9ADF1080C6DE904CEA0
:1002000000F006F8DDF804E0DDE9022304B07047F1
:100210002DE9F047089D04468C46002B40F0838072
:100220008A42174647D9B2FA82F242B1C2F120009F
:1002300024FA00F09140974040EA010C94404FEAC4
:100240001748230CBCFBF8F61FFA87FE08FB16C103
:1002500043EA014306FB0EF1994209D9FB1806F166
:10026000FF3080F01981994240F21681023E3B44F2
:100270005B1AA4B2B3FBF8F008FB103344EA034462
:1002800000FB0EFEA64509D93C1900F1FF3380F0B2
:100290000581A64540F2028102383C4440EA06400E
:1002A000A4EB0E0400261DB1D4400023C5E9004391
:1002B0003146BDE8F08702B9FFDEB2FA82F2002AC9
:1002C00050D1CB1B4FEA174E1FFA87F80126B3FB1C
:1002D000FEFC210C0EFB1C3341EA034108FB0CF32E
:1002E0008B4207D979180CF1FF3002D28B4200F211
:1002F000E9808446C91AA3B2B1FBFEF00EFB1011CF
:1003000043EA014408FB00F8A04507D93C1900F175
:10031000FF3302D2A04500F2D9801846A4EB0804AE
:1003200040EA0C40BFE78B4209D9002D00F0B180B4
:100330000026C5E9000130463146BDE8F087B3FA32
:1003400083F6002E4AD18B4202D3824200F2B8805B
:10035000841A61EB030101208C46002DA8D0C5E969
:10036000004CA5E7C2F1200320FA03F6974001FAFA
:1003700002F04FEA174ED9403043030CB1FBFEF6B2
:100380001FFA87F80EFB161143EA014306FB08F13A
:10039000994204FA02F409D9FB1806F1FF3C80F0F7
:1003A0008D80994240F28A80023E3B445B1A81B2C2
:1003B000B3FBFEF00EFB103341EA034100FB08F3F0
:1003C0008B4207D9791800F1FF3C73D28B4271D967
:1003D00002383944CB1A40EA064678E7C6F1200CC9
:1003E00003FA06F422FA0CF31C4320FA0CF701FA84
:1003F00006F34FEA144E21FA0CF11F433B0CB1FBFC
:10040000FEF91FFA84F80EFB191143EA014109FBBA
:1004100008FA8A4502FA06F200FA06F308D96118CA
:1004200009F1FF3048D28A4546D9A9F10209214491
:10043000A1EB0A01BFB2B1FBFEF00EFB101147EABF
:10044000014700FB08F8B84507D9E71900F1FF316B
:100450002ED2B8452CD90238274440EA0940A7EBF0
:100460000807A0FB02894F45C64649461AD317D054
:100470005DB1B3EB0E0267EB010707FA0CFCF2402B
:100480004CEA0202F740C5E9002700263146BDE8E4
:10049000F0872E4628460BE70646E9E61846FDE6B5
:1004A0004345E5D2B8EB020E69EB04010138DFE702
:1004B0000846D2E760468DE78146B9E7664675E7AC
:1004C00030464AE7ACF1020C394413E702383C44A9
:1004D00024E700BF704700BF044B036010B48023C3
:1004E000034C0C605DF8044B136070475806002005
:1004F0005804002008B5012000F028FFFBE700BFEA
:1005000008B5054C2046202100F0CCFA41F2883095
:1005100000F01CFFF6E700BF00000240F0B595B008
:1005200000242C22002109A801F0F8FECDE90244A4
:10053000CDE90444184B00940694196C174A41F015
:10054000805119641B6C03F080530093009B01944D
:10055000136823F4404343F40043136013680E947C
:1005600003F44043019302210122102308A8CDE99E
:100570000B230891019D0F2600F09CFA0027002212
:10058000002302A82146CDE90267CDE904230694A1
:1005900000F0A6FC15B0F0BD00380240007000402D
:1005A00080B5002590B000F0FFF8FFF7B7FFCDE968
:1005B0000855CDE90A551E4B00950C951A6B1D4840
:1005C0001D4C42F001021A631B6B03F00103009300
:1005D0002A462021009B202600F060FA01270022F5
:1005E0000023144808A9CDE90867CDE90A2300F0E3
:1005F00061F90FCC01AE0FC694E8070086E807004A
:10060000294601A800F076FE0C3407460FCC08AE50
:100610000FC694E80700094B86E80700294608A89A
:100620001F6000F067FE064B186000F05DFEFEE7FD
:100630000038024000000240B4240008AC0600204C
:10064000B0060020034B02689A4200D0704700F0C9
:10065000C5B800BF0000014082B00E4B00220092DE
:10066000596C41F480415964596C01F48041009106
:1006700000990192196C41F0805119641B6C03F0D0
:1006800080530193019B0F216FF0010002B000F035
:10069000CBB800BF0038024030B5014689B0002217
:1006A000192000F0C1F8192000F0F6F80025154BCC
:1006B00002955A6C144C42F001025A645B6C03F0D0
:1006C000010301A9029303A8029B00F0B7FC00F00C
:1006D000A5FC0E4B0E492561A3FB0030830C013BAA
:1006E00040F2E7322046C4E901352160E26000F0C3
:1006F000C9FC10B1012009B030BD204600F02EFD2C
:1007000009B030BD00380240B406002083DE1B4330
:1007100000000140704700BFFEE700BFFEE700BFDA
:10072000FEE700BFFEE700BF704700BF014800F0D2
:100730002DBD00BFB4060020054BD3F888204FF034
:10074000006142F47002C3F888209960704700BFCE
:1007500000ED00E0DFF834D0002103E00C4B5B58E3
:10076000435004310B480C4B42189A42F6D30B4AC3
:1007700002E0002342F8043B094B9A42F9D3FFF709
:10078000DBFF01F0A7FDFFF70BFF704700800120A2
:1007900034250008000000203C0400203C04002018
:1007A00064440020FEE7000008B50B4B1A6842F4D1
:1007B00000721A601A6842F480621A601A6842F481
:1007C00080721A60032000F01BF80020FFF764FF1E
:1007D000FFF742FF002008BD003C0240034A044BE3
:1007E00011681B780B441360704700BFF4060020AB
:1007F00004000020014B1868704700BFF406002079
:100800000849CA6810B400024FF6FF04224000F401
:10081000E063134343F0BF6343F400335DF8044BDC
:10082000CB60704700ED00E0194BDB68C3F3022397
:1008300030B4C3F10705042D03F1040428BF0425D7
:10084000062C19D9033B4FF0FF349C4022EA0402E6
:100850004FF0FF34AC4021EA04019940002841EAFE
:1008600002010CDB00F1604000F561400901C9B2F2
:1008700080F8001330BC704700221346E8E7054BB0
:1008800000F00F0009010344C9B2197630BC70476B
:1008900000ED00E0FCEC00E0002807DB00F01F01A9
:1008A000034A400901238B4042F82030704700BFC3
:1008B00000E100E02DE9F04FDFF8DCC10D6885B004
:1008C00000234FF0010B03E00133102B00F08A806E
:1008D0000BFA03F202EA050AAA43F5D14C6824F0A8
:1008E000100E0EF1FF32012A4FEA43067DD9C76888
:1008F0000322B24027EA020E8F68B74047EA0E078C
:10090000D2430192C760D0F800E0019A04F00307D7
:1009100007FA06F60EEA020E46EA0E06E700066041
:10092000D2D5584E00220392726C42F48042726417
:10093000726C23F0030707F1804702F4804207F549
:100940009C37039203F00306039AD7F808E0B60039
:100950000F22B2402EEA02084B4A904215D002F50F
:10096000806290427BD0494A90427DD0484A904272
:1009700000F08180474A90420CBF4FF0040E4FF0C8
:10098000070E0EFA06F648EA0608C7F80880DCF8F3
:100990000020E6036FEA0A0754BF3A404AEA02021F
:1009A000CCF80020DCF80460A20354BF3E404AEAC1
:1009B0000606CCF80460DCF80860E20254BF3E4052
:1009C0004AEA0606CCF80860DCF80C20A40203F121
:1009D000010354BF3A404AEA0202102BCCF80C2023
:1009E0007FF476AF05B0BDE8F08F87688A684FF076
:1009F000030808FA06F827EA0809CF68B74047EA6B
:100A000009078760D0F80490C4F3001729EA0A099F
:100A10009F4047EA09074760C768B24027EA0807CE
:100A20001743BEF1020F6FEA08020192C7607FF41C
:100A30006AAF4FEAD30800EB880803F00707BA0053
:100A4000D8F820900F694FF00F0E0EFA02FE29EA37
:100A50000E0E974047EA0E07C8F8207053E70BFACE
:100A600006F648EA060890E74FF0020E0EFA06F680
:100A700048EA060889E74FF0030E0EFA06F648EA40
:100A8000060882E7003802400000024000080240E9
:100A9000000C024000100240003C014002B9090471
:100AA00081617047436931EA030308BF090481612A
:100AB000704700BF002800F09F812DE9F0410368D6
:100AC000DD0782B004462FD5AC498A6802F00C02DB
:100AD000042A00F0EC808A6802F00C02082A00F078
:100AE000E2806368B3F5803F00F0EB80B3F5A02FA0
:100AF00000F07281A14D2A6822F480322A602A68AF
:100B000022F480222A60002B40F0E080FFF772FE82
:100B1000064605E0FFF76EFE801B642800F20081A8
:100B20002B689B03F6D423689F0728D5934A9168C6
:100B300011F00C0F00F09080916801F00C01082971
:100B400000F08680E368002B00F006818C4B8B4E12
:100B500001221A60FFF74EFE054605E0FFF74AFE48
:100B6000401B022800F2DC8033689807F6D5336812
:100B7000226923F0F80343EAC203336023681A07AB
:100B800052D458072FD57D4A136C13F080537ED072
:100B900000257C4E3368D90540F1B280A368012B53
:100BA00000F0C280052B00F02981744E326F22F0D4
:100BB00001023267326F22F004023267002B40F0EC
:100BC000B880FFF717FE41F28838074605E0FFF7C7
:100BD00011FEC01B404500F2A380336F9807F6D486
:100BE000002D40F00381A069D0B1644DAB6803F0E3
:100BF0000C03082B00F0CC80634B002202281A6003
:100C000000F00681FFF7F6FD2C46054605E0FFF7EC
:100C1000F1FD401B022800F2838023689B01F6D47B
:100C2000002002B0BDE8F081636903B3574B534E17
:100C300001221A60FFF7DEFD054604E0FFF7DAFD4A
:100C4000401B02286CD8736F9B07F7D5236898E781
:100C5000526856023FF576AF484A1268950743D569
:100C6000E268012A40D0012002B0BDE8F081474A85
:100C7000424E1360FFF7BEFD054604E0FFF7BAFDE4
:100C8000401B02284CD8736F9F07F7D4DEE701930F
:100C9000136C43F080531364136C03F0805301937F
:100CA000019B012575E74A6850027FF51AAF334A68
:100CB000126891037FF538AF6268002A7FF434AF81
:100CC000D1E72E4A136843F480331360FFF792FD97
:100CD0002A4E054604E0FFF78DFD401B64281FD80F
:100CE00033689A03F7D51EE7244920690A6822F081
:100CF000F80242EAC0020A601A077FF542AF93E7A2
:100D0000336843F480733360FFF774FD074633683C
:100D1000DA053FF543AFFFF76DFDC01B0228F6D99A
:100D2000032002B0BDE8F081144A136F43F00103C1
:100D30001367FFF75FFD114F064641F2883804E064
:100D4000FFF758FD801B4045EAD83B6F9B07F7D55E
:100D5000002D3FF448AF49E0094A084E1360FFF701
:100D600049FD054604E0FFF745FD401B0228D7D8A2
:100D700033689907F7D4236801E700BF00380240C1
:100D8000000047420070004060004742800E47422A
:100D900001283FF446AF6B68E26903F48001914299
:100DA0007FF461AF226A03F03F0191427FF45BAFB1
:100DB000616A47F6C0721A408A427FF454AFA26A51
:100DC00003F4403191427FF44EAFE06A03F0706368
:100DD000181A18BF012024E7244B1A6842F4802215
:100DE0001A601A6842F480321A606FE71F4A136C67
:100DF00023F080531364F6E6012070471B4B1A6FF3
:100E000042F004021A671A6F42F001021A6790E773
:100E1000FFF7F0FC064605E0FFF7ECFC801B02281C
:100E20003FF67EAF2B689901F6D4D4E90736D4E9B2
:100E30000902E16A334343EA8013520843EA01633B
:100E4000013A0B49094E43EA024301226B600A60F2
:100E5000FFF7D0FC044605E0FFF7CCFC001B02289E
:100E60003FF65EAF33689A01F6D5D9E60038024006
:100E700060004742174908B58B6803F00C03042B48
:100E80001BD0082B17D14A684B6813F4800302F07B
:100E90003F0214D149681048C1F38811A1FB000139
:100EA000FFF79EF90B4B5B68C3F3014301335B0013
:100EB000B0FBF3F008BD084808BD084808BD4B6802
:100EC0000648C3F38813A3FB00010023FFF788F94A
:100ED000E8E700BF003802400024F40040787D01BC
:100EE000002800F08780484A136803F00F038B4204
:100EF0002DE9F0410D46044609D2CBB213701368B8
:100F000003F00F038B4202D00120BDE8F08123687B
:100F1000980714D5590704D53C498A6842F4E05231
:100F20008A601A0704D539498A6842F460428A60A7
:100F30003649A0688A6822F0F00202438A60DF071F
:100F400021D56268012A57D0931E012B2F4B1B68B5
:100F50004DD99907D8D52D4EB36823F00303134319
:100F6000B360FFF747FC41F28838074604E0FFF71B
:100F700041FCC01B404544D8B368626803F00C03D1
:100F8000B3EB820FF3D1204A136803F00F03AB4297
:100F900006D9EBB21370136803F00F03AB42B3D161
:100FA00023685A0706D51949E0688A6822F4E05296
:100FB00002438A601B0707D5144A2169936823F40A
:100FC000604343EAC1039360FFF754FF0F4A104C9C
:100FD00092681049C2F303120346A25C0E48D34044
:100FE00000680B60FFF758FB0020BDE8F081980116
:100FF000B1D489E701207047044B1B689E03AAD433
:1010000082E7032081E700BF003C02400038024035
:10101000042500080000002008000020044B054AB9
:101020009B680549C3F342330868D35CD8407047D6
:101030000038024014250008000000200E4B0F224B
:1010400002609A6802F0030242609A6802F0F002BD
:1010500082609A6802F4E052C2609B68DB0810B4B8
:1010600003F4E053054C036123685DF8044B03F07F
:101070000F030B60704700BF00380240003C024085
:10108000704700BF002864D038B590F83D30044662
:1010900003F0FF02002B43D021682F4A022384F87B
:1010A0003D3091420B6840D0B1F1804F21D0A2F584
:1010B0007C4291421DD002F58062914219D002F526
:1010C0008062914215D002F59A32914215D002F514
:1010D0008062914211D002F5806291420DD0A569E3
:1010E000E068626823F080032B430B60C8628A6269
:1010F00010E0A26823F0700313432569A269E06839
:1011000023F440732B4323F08003134362680B6086
:10111000C8628A6201234B6184F83D30002038BDEB
:1011200080F83C20FFF7ACFFB6E7A5682069A2690C
:1011300023F070032B4323F44073034323F0800315
:1011400013430B60E368CB6263688B6263690B6374
:10115000E0E70120704700BF000001400368DA6843
:1011600042F00102DA609A6802F00702062A03D010
:101170001A6842F001021A6000207047704700BFF1
:10118000704700BF704700BF704700BF03681A690F
:10119000910710B5044602D5DA6892075FD41A6940
:1011A000500702D5DA68510746D41A69120702D5EA
:1011B000DA6810072ED41A69D20602D5DA68D0068A
:1011C00018D41A69D10702D5DA68D2075DD41A6932
:1011D000100602D5DA6811065FD41A69520602D5E4
:1011E000DA68500661D41A69910602D5DA68920667
:1011F00043D410BD6FF01001082219612277DB691A
:1012000013F4407F204664D0FFF7BAFF0022236822
:101210002277D6E76FF00801042219612277DB6993
:101220009907204652D1FFF7A9FF2046FFF7AAFFF2
:10123000002223682277BEE76FF0040102221961C1
:1012400022779B6913F4407F20463CD1FFF796FF3D
:101250002046FFF797FF002223682277A5E76FF06B
:1012600002010122196102779B699B0725D0FFF7D4
:1012700087FF00222368227791E76FF02002204643
:101280001A61BDE8104000F02BB86FF001021A613E
:101290002046FFF7D7F9236899E76FF080021A61BB
:1012A000204600F01FF8236897E76FF040021A61AC
:1012B0002046FFF769FF236895E7FFF75FFF2046A9
:1012C000FFF760FFD5E7FFF75BFFC4E7FFF758FFC5
:1012D000AEE7FFF753FF2046FFF754FF96E700BF46
:1012E000704700BF704700BF08B500F0C9FD00207F
:1012F00008BD00BF70B5446986B002460B468CB18C
:1013000086697EB1B0F908501269842D14BF033587
:101310000025D0E90010CDE90146009500F04AFC17
:1013200006B070BDB2F90840842C14BF0334002409
:1013300005ADD2E90010128ACDE9004500F0F2FCBB
:1013400001280CBF0598002006B070BD08B5012823
:1013500038BF012000F05EFF002008BD00F1080347
:101360004FF0FF310022C0E9033381600260436027
:10137000704700BF00230361704700BF43680268E5
:1013800010B49C688C609C684B600132616099600D
:101390005DF8044B08610260704700BF30B40D680F
:1013A0006B1C10D000F108031C465B681A68AA4247
:1013B000FAD902684B60013299608C606160086103
:1013C00030BC0260704704696368F2E7036910B4D7
:1013D000D0E901125C688A608442516008BF5A609B
:1013E0001A685DF8044B0021013A01611A6018681F
:1013F000704700BF08480068006880F308884FF015
:10140000000080F3148862B661B6BFF34F8FBFF35C
:101410006F8F00DF00BF000008ED00E0DFF80C0078
:10142000016841F4700101607047000088ED00E040
:101430000E4B1B6882B000220133019208D04FF09E
:10144000500383F31188BFF36F8FBFF34F8FFEE715
:101450004FF0500383F31188BFF36F8FBFF34F8FAB
:10146000019B002BFCD002B0704700BF0C00002095
:1014700030B421F00101094C40F80C4C4FF080755C
:101480006FF0020340F8045C40F8081C40F8202C80
:1014900040F8243C30BC4438704700BF3114000889
:1014A000074B19680868B0E8F04F80F30988BFF36C
:1014B0006F8F4FF0000080F311887047AFF300800A
:1014C000184300204FF0500383F31188BFF36F8F50
:1014D000BFF34F8F0A4A13680133012B136000D00A
:1014E0007047084B1B6813F0FF0FF9D04FF0500303
:1014F00083F31188BFF36F8FBFF34F8FFEE700BFF9
:101500000C00002004ED00E0084A136843B94FF0D6
:10151000500383F31188BFF36F8FBFF34F8FFEE744
:10152000013B13600BB983F3118870470C00002056
:10153000EFF30980BFF36F8F154B1A681EF0100F81
:1015400008BF20ED108A20E9F04F10602DE9090056
:101550004FF0500080F31188BFF34F8FBFF36F8FB0
:1015600000F07CFE4FF0000080F3118809BC196880
:101570000868B0E8F04F1EF0100F08BFB0EC108AFA
:1015800080F30988BFF36F8F704700BFAFF300800F
:101590001843002008B54FF0500383F31188BFF3C0
:1015A0006F8FBFF34F8F00F0EDFC18B1034B4FF07E
:1015B00080521A60002383F3118808BD04ED00E017
:1015C00030B4094A094D0A4B0A4C0B4800211160FE
:1015D00029601B68A4FB03139B09013B07210360DF
:1015E00030BC1160704700BF10E000E018E000E080
:1015F00000000020D34D621014E000E0444B454A47
:101600001968914240D01A68434B9A4233D030B5A2
:10161000424B434C1A78434985B0D2B2FF20029224
:1016200018701B78DBB28DF807309DF807309DF8F5
:10163000072003F05003072023701406086048BFFA
:1016400006220FD59DF807305B00DBB28DF807301E
:101650009DF807000006134602F1FF32F2D4032B77
:101660001BD00B604FF0500383F31188BFF36F8FD3
:10167000BFF34F8FFEE74FF0500383F31188BFF3A2
:101680006F8FBFF34F8FFEE74FF0500383F3118846
:10169000BFF36F8FBFF34F8FFEE7029A1F48224BB5
:1016A000224CD2B24FF440750D6002701A6842F4B9
:1016B00070021A601A6842F070421A600025FFF743
:1016C0007FFF2560FFF7AAFE194A136843F04043E5
:1016D0001360FFF78FFE00F0C1FD2368039501330F
:1016E00008D04FF0500383F31188BFF36F8FBFF31F
:1016F0004F8FFEE74FF0500383F31188BFF36F8FD6
:10170000BFF34F8F039B002BFCD0002005B030BDF2
:1017100000ED00E071C20F4170C20F4100E400E033
:10172000F8060020FC06002020ED00E00C00002060
:1017300034EF00E02DE9F041064600F01BFC514873
:101740000368002B3AD0504A15682E4230D17EB340
:1017500006F1080476071CBF24F0070408343CB3E4
:10176000DFF830C1DCF80070A74221D3474A116886
:1017700003E00E6826B10A4631464868A042F8D315
:10178000994215D00E46A0EB040E56F8088BC2F80D
:101790000080BEF1100F52D90A19500732D04FF015
:1017A000500383F31188BFF36F8FBFF34F8FFEE7B2
:1017B00000F09CFC00263046BDE8F081344B334CF1
:1017C000344DDFF8D4C05F0714BFDA1D1A4603F5A5
:1017D0007053A3F1080323F0070318BF22F0070298
:1017E00022601146284F03609A1A00202A604FF0A9
:1017F00000456060CCF80020C3E900003D60C1E90D
:101800000032A2E72148C2F804E04C608646006836
:101810008242FBD8DEF804400EEB0408424527D193
:1018200052681444CEF80440724602EB0408404566
:1018300020D010609645486818BFCEF80020164C9E
:1018400022683F1A002328439742C1E9003038BF7D
:101850002760CCF8007000F049FC7307ABD04FF064
:10186000500383F31188BFF36F8FBFF34F8FFEE7F1
:101870005468DAE79842DCD0D0E900031C441060D9
:101880005460D7E7000700200443002010430020E5
:1018900004070020084300200C430020E0B1274A41
:1018A00038B5126850F8043C134204460BD050F887
:1018B000081C91B14FF0500383F31188BFF36F8F71
:1018C000BFF34F8FFEE74FF0500383F31188BFF350
:1018D0006F8FBFF34F8FFEE7704723EA020340F894
:1018E000043C00F047FB164954F8040C0B68154AF9
:1018F00003440B60A4F10803114612689342FBD81D
:101900004C680D19AB420AD01C18A2420BD01A60C9
:10191000994218BF0B60BDE8384000F0E7BB204497
:1019200048600B46F0E7084C2468A242EFD0D2E9A9
:10193000002420441A605860EAE700BF04430020F6
:101940000843002010430020000700202DE9F0414B
:101950000446FFF7B7FD384A384D1368013313606A
:101960002B68002B31D0364E33683BB3E36A354ADF
:10197000354F1168D7F800C0344801311160012299
:101980009A4003EB830342EA0C0200EB8300211D23
:101990003A60FFF7F3FCFFF7B7FD336863B12A68DD
:1019A000E36AD26A9A4207D2294B4FF080521A60FA
:1019B000BFF34F8FBFF36F8FBDE8F0812A68E36AF2
:1019C000D26A9A4298BF2C60D1E72C601368012B31
:1019D00002D0E36A1A4ECAE71C48DFF8A8801D4F00
:1019E000174EFFF7BBFC1C48FFF7B8FC1B48FFF77E
:1019F000B5FC1B48FFF7B2FC1A48FFF7AFFC1A48CA
:101A0000FFF7ACFC1948FFF7A9FC4046FFF7A6FC1E
:101A10003846FFF7A3FC1648FFF7A0FC1548FFF770
:101A20009DFC1548FFF79AFC144B154AC2F800803C
:101A30001F60E36A9BE700BFB0430020184300200B
:101A40000C440020C0430020C44300202443002055
:101A500004ED00E0DC430020384300204C4300202C
:101A60006043002074430020884300209C430020F2
:101A7000F84300202444002010440020204300208C
:101A80001C430020C8430020F8B51B4B1B4E1D68AB
:101A900033680446181D0F46FFF798FC40B93368B9
:101AA0001749D86A0B680122824023EA02030B60BF
:101AB000631C17D033682C195C6007D3114B18686E
:101AC0003168BDE8F8400431FFF768BC0E4B186878
:101AD00031680431FFF762FC0C4B1A68A24288BFE0
:101AE0001C60F8BD002FE5D031680948BDE8F8401A
:101AF0000431FFF743BC00BF3844002018430020E6
:101B0000C4430020204300201C430020F043002059
:101B100010440020224DDFF890A0224EDFF88C9078
:101B2000DFF88C8080B54FF080572B6843B3FFF708
:101B3000C9FCDAF80C30DC68201DFFF747FC33687D
:101B4000013B33602B68013B2B60FFF7DDFC94F811
:101B5000513063B1012B1ED0022BE6D04FF0500361
:101B600083F31188BFF36F8FBFF34F8FFEE7206BB6
:101B7000FFF794FE2046FFF791FE2B68002BD6D18D
:101B8000D9F80030012BD0D9C8F80070BFF34F8FBF
:101B9000BFF36F8FC9E72046FFF780FEC5E700BFA0
:101BA000B4430020B04300202444002024430020FC
:101BB00004ED00E02DE9F04184B0DDE90B74CFB114
:101BC0007CB116461A4654230393039B542B1AD018
:101BD0004FF0500383F31188BFF36F8FBFF34F8F24
:101BE000FEE74FF0500383F31188BFF36F8FBFF30D
:101BF0004F8FFEE74FF0500383F31188BFF36F8FD1
:101C0000BFF34F8FFEE706F18046013E0D4607EB1E
:101C10008606022303992763804626F0070684F888
:101C20005130002D7BD02B7884F834302B78002B6A
:101C30004DD06B7884F835306B78002B47D0AB787B
:101C400084F83630AB78002B41D0EB7884F837300D
:101C5000EB78002B3BD02B7984F838302B79002B94
:101C600035D06B7984F839306B79002B2FD0AB7974
:101C700084F83A30AB7953B3EB7984F83B30EB79A5
:101C80002BB32B7A84F83C302B7A03B36B7A84F82D
:101C90003D306B7ADBB1AB7A84F83E30AB7AB3B1CE
:101CA000EB7A84F83F30EB7A8BB12B7B84F84030B1
:101CB0002B7B63B16B7B84F841306B7B3BB1AB7B9F
:101CC00084F84230AB7B13B1EB7B84F843300023C4
:101CD00084F843300A9F0192062F28BF062700256B
:101CE000C4E91175E762201DFFF744FBC7F1070740
:101CF00004F11800FFF73EFB019AE5644146A76135
:101D0000246184F8505064623046FFF7B1FB2060D4
:101D10002046FFF71BFE204604B0BDE8F08184F8A2
:101D20003450D7E72DE9F0474FEA8208064640468F
:101D30000D461F46FFF7FEFC002800F09380814609
:101D40005420FFF7F7FC0446002800F08F800023A2
:101D5000C0F8309080F85130002D00F08D802B7845
:101D600080F834302B78002B4DD06B7880F83530EC
:101D70006B78002B47D0AB7880F83630AB78002BEF
:101D800041D0EB7880F83730EB78002B3BD02B79C3
:101D900080F838302B79002B35D06B7980F83930CA
:101DA0006B79002B2FD0AB7980F83A30AB7953B3F5
:101DB000EB7980F83B30EB792BB32B7A80F83C3011
:101DC0002B7A03B36B7A80F83D306B7ADBB1AB7A58
:101DD00080F83E30AB7AB3B1EB7A80F83F30EB7AE3
:101DE0008BB12B7B80F840302B7B63B16B7B80F811
:101DF00041306B7B3BB1AB7B80F84230AB7B13B1A6
:101E0000EB7B80F84330002384F84330089D062D97
:101E100028BF06254FF0000AC4E9115AE562201DCB
:101E2000FFF7A8FA04F11800FFF7A4FAA8F10401DB
:101E30004944C5F10705C4F84CA021F00700A5618D
:101E400084F850A0246164623A463146FFF710FBE3
:101E5000099B206003B11C602046FFF777FD01203D
:101E6000BDE8F0874FF0FF30BDE8F0874846FFF748
:101E700015FD4FF0FF30F3E780F83450C6E700BFA0
:101E800070B584B0002402AA01A96846CDE90044D7
:101E9000FEF722FB019BCBB1009D75B1542203924A
:101EA000039A029E542A1AD04FF0500383F31188EC
:101EB000BFF36F8FBFF34F8FFEE74FF0500383F3F5
:101EC0001188BFF36F8FBFF34F8FFEE74FF05003C2
:101ED00083F31188BFF36F8FBFF34F8FFEE706F1D7
:101EE00080461F4A6A630221013E85F851102B6328
:101EF000281DC5E9114403EB860385F8384085F8B1
:101F00004340EC6223F00706039BFFF733FA05F129
:101F10001800FFF72FFA07231249EC64AB61224641
:101F200030462D616D6285F85040FFF7A1FA2860B8
:101F30002846FFF70BFD4FF0500383F31188BFF3E2
:101F40006F8FBFF34F8F084A084B094801214FF0AC
:101F5000FF35056011601C60FFF750FB04B070BDD9
:101F600049444C45151B00080C440020384400200F
:101F7000F0430020024A136801331360704700BF2A
:101F8000BC4300202DE9F04F4D4B1B6883B0002B64
:101F90004DD14C4B1E6801361E60002E55D04A4D67
:101FA0002B68B34266D8DFF83091D9F800301C684E
:101FB000002C77D0454FDFF82C81DFF82CA10024CE
:101FC00027E00191FFF702FADBF8282001990BF1D5
:101FD000180012B1FFF7FAF90199DBF82C00DAF8D2
:101FE00000300122824000EB80001A4307EB8000A2
:101FF000CAF80020FFF7C2F9D8F80020D9F800008D
:10200000DBF82C10D26A0368914228BF0124002B10
:102010004BD0D9F80030DB68D3F80CB0DBF80420E3
:102020000BF1040196420846CBD22A6026E0284AEA
:102030001368013313600024264B1B68002B0CBF70
:102040002046012003B0BDE8F08F234B1A681268C8
:10205000FAB9224A1868224914681C6010600A689C
:1020600001320A601A6812681ABB174D4FF0FF332D
:102070002B6095E7154FDFF86C800024D8F800300E
:10208000DB6A03EB83039B00FB58022B28BF012470
:10209000D2E74FF0500383F31188BFF36F8FBFF384
:1020A0004F8FFEE7094FDFF83C804FF0FF332B6086
:1020B000E4E71B68044DDB68DB685B682B606FE757
:1020C000BC43002038440020F0430020244300207B
:1020D000B84300203C4400201C4300202043002043
:1020E000F443002018430020C44300202DE9F84F9A
:1020F0003D4C236843B94FF0500383F31188BFF37D
:102100006F8FBFF34F8FFEE7FFF7DCF92368013BCA
:1021100023602368002B3CD1344B1B68002B38D044
:10212000334C2368002B3ED0DFF8DC80DFF8DC90F6
:10213000DFF8DCA02F4D0127E368DE6806F1040B11
:1021400006F11800FFF742F95846FFF73FF9F06A29
:10215000D8F8002007FA00F300EB8000134359463B
:1021600009EB8000C8F80030FFF708F9DAF8003012
:10217000F26ADB6A9A4212D32F602368002BDBD10C
:102180001D4B1A6812683ABB1C4B4FF0FF321A60A5
:102190000AE00024FFF7B8F92046BDE8F88F23686D
:1021A000002BC9D1ECE7134D154E34683CB1012723
:1021B000FFF7E8FE00B12F60013CF9D134602B68D5
:1021C000002BE6D00F4B4FF080521A60BFF34F8FB9
:1021D000BFF36F8F0124DDE71A68084BD268D2681D
:1021E00052681A60E0E700BFBC430020B043002003
:1021F000F84300203C4400201C430020F043002012
:10220000B843002004ED00E0C44300202443002034
:102210001843002008B598B10E4B196841B14FF032
:10222000500383F31188BFF36F8FBFF34F8FFEE727
:102230001A6801321A60FFF727FCFFF757FF38B919
:10224000054B4FF080521A60BFF34F8FBFF36F8F73
:1022500008BD00BFBC43002004ED00E0184B1B6824
:102260001BB1184B01221A6070471649164A0B60C1
:102270001368B3FA83F3DBB2C3F11F0303EB8303E9
:1022800012499A0001EB8303885840B94FF050037C
:1022900083F31188BFF36F8FBFF34F8FFEE710B446
:1022A0005C6802F1080062685A6001448A4204BF17
:1022B00052685A60064BD2685DF8044B1A6070474A
:1022C000BC4300203C440020C443002024430020A1
:1022D0001843002070B50D4E0D4D761BB61006D07C
:1022E000002455F8043B01349847A642F9D1094E21
:1022F000094D761B00F0D2F8B61006D0002455F830
:10230000043B01349847A642F9D170BD2825000846
:10231000282500083025000828250008F0B4860785
:1023200046D0541E002A3CD0CAB2034601E0013C0C
:1023300037D303F8012B9D07F9D1032C2AD9CDB24D
:1023400045EA05250F2C45EA054534D9A4F11002CC
:1023500022F00F0C03F120071609674403F1100265
:1023600042E9045542E902551032BA42F8D1721CD2
:1023700014F00C0F03EB021204F00F0613D0331FFE
:1023800023F003030433134442F8045B9342FBD16C
:1023900006F003042CB1CAB21C4403F8012B9C4282
:1023A000FBD1F0BC704734461346002CF3D1F8E75C
:1023B00014460346C1E71A462646E0E7024B13B12E
:1023C000024800F005B8704700000000DD23000857
:1023D000002301461A46184600F01AB838B5084BD3
:1023E000084D5B1B9C1007D0043B1D44013C55F875
:1023F00004399847002CF9D1BDE8384000F054B8B2
:102400003425000830250008704700BF704700BF22
:102410002DE9F047DFF880A00646DAF8000098467C
:102420000F469146FFF7F0FF1A4B1B68D3F848415F
:1024300024B365681F2D26DC5EB9AB1C0135DAF8C4
:102440000000656044F82370FFF7E0FF0020BDE85E
:10245000F08704EB85030121C3F88890D4F8882124
:10246000A9400A43022EC4F88821C3F80881E4D1A8
:10247000D4F88C311943C4F88C11DEE703F5A67447
:10248000C3F84841D5E7DAF80000FFF7BFFF4FF087
:10249000FF30DCE71C25000838040020F8B500BF39
:1024A000F8BC08BC9E467047F8B500BFF8BC08BC35
:0424B0009E4670478D
:1024B400EC240008F50400080000000000000000FF
:1024C400800000000000000000000000F824000864
:1024D40001050008FDFF000000000000800000006E
:1024E400000000000000000064656661756C7454AF
:1024F40061736B006D795461736B303200000000BE
:10250400000000000000000001020304060708099F
:0C25140000000000010203041000002081
:08252000F0DCFF7F0100000068
:08252800BD230008C5010008F5
:04253000A1010008FD
:102534000024F4000100000010000000AAAAAAAAC6
:1025440000000000FC02002064030020CC030020F3
:102554000000000000000000000000000000000077
:102564000000000000000000000000000000000067
:102574000000000000000000000000000000000057
:102584000000000000000000000000000000000047
:102594000000000000000000000000000000000037
:1025A4000000000000000000000000000000000027
:1025B4000000000000000000000000000000000017
:1025C4000000000000000000000000000000000007
:1025D40000000000000000000000000000000000F7
:1025E40000000000000000000100000000000000E6
:1025F4000E33CDAB34126DE6ECDE05000B000000AB
:1026040000000000000000000000000000000000C6
:1026140000000000000000000000000000000000B6
:1026240000000000000000000000000000000000A6
:102634000000000000000000000000000000000096
:0C296400000000000000000040440020C3
:040000050800075593
:00000001FF
